:100000000C9470010C9498010C9498010C94440E7B
:100010000C94440E0C94440E0C9498010C9498018A
:100020000C9498010C9498010C9498010C949801EC
:100030000C9498010C9498010C9498010C949801DC
:100040000C94A20D0C9498010C94120E0C94EC0DCF
:100050000C9498010C9498010C9498010C949801BC
:100060000C94BC0E0C9498014E414E494E49545983
:10007000494E46CDCCCC3D0AD7233C17B7D1387773
:10008000CC2B329595E6241FB14F0A000020410089
:1000900000C84200401C4620BCBE4CCA1B0E5AAED3
:1000A000C59D7420592F4E3F3A003E444F4E453A6D
:1000B00052454D4F56452042415252454C2000205A
:1000C0002020202020202020202020202046494CB5
:1000D0004C333A002020202020202046494C4C322E
:1000E0003A202020202020200046494C4C313A2044
:1000F00020202020202020202020202020003E52D0
:10010000454144593A505245535320535441525457
:10011000202000523A52454D4F56452050524F47ED
:1001200052414D5300443A444953504C4159205098
:10013000524F4752414D5300503A50524553455447
:100140002050524F4752414D002D2D2D2D2D2D2D3C
:100150002D2D2D2D2D2D2D2D2D2D2D2D2D2D0052D7
:10016000454144590046494C4C45523320202047D4
:10017000524F574D41542E435A0050524F4752410F
:100180004D3A0047524F574D41542E435A0046496D
:100190004C4C4552330053554253333A0053554269
:1001A00053323A0053554253313A004E414D453A8D
:1001B0000053554253333A0053554253323A005399
:1001C000554253313A00544152413A00574549474C
:1001D00048543A0053544154453A00524541445919
:1001E00000544152413A005355534253333A00535D
:1001F000555342323A0053554253313A0053544F0B
:100200005000544152413A003E4544495420505216
:100210004F4752414D2020202020202000574549A3
:100220004748543A0052454D4F564520414C4C00EA
:100230005745494748543F3A0049443F3A005341E3
:1002400056450049443F3A0050524F4752414D3ABB
:100250000000000000240027002A00000000080021
:10026000020100000304070000000000000000532A
:10027000554253313A2053554253323A2053554256
:1002800053333A003A0053554253330053554253C7
:1002900032005355425331004E414D450049440010
:1002A00000000000230026002900000000002500B7
:1002B00028002B00040404040404040402020202C3
:1002C0000202030303030303010204081020408019
:1002D000010204081020010204081020DB0F141A88
:1002E00011241FBECFEFD8E0DEBFCDBF23E0A0E7D3
:1002F000B1E001C01D92A939B207E1F711E0A0E019
:10030000B1E0E2E8F5E402C005900D92A037B10734
:10031000D9F711E0CFE6D1E004C02197FE010E9499
:10032000FF1DCE36D107C9F70E94D1100C94B4221C
:100330000C9400002091B10281E0213208F044C009
:1003400080918D028111FCCF8091B00292E0909358
:100350008D0291E090938C029FEF90938B0210920C
:100360008A0220938902A0E9B2E0E9E6F2E090E097
:10037000291331C01092680290916802880F892B6E
:100380008093680280916702813049F5109267027C
:10039000809168028093BB008091BC0083FDF8CF00
:1003A00085EC8093BC0080918D028230E1F38091D6
:1003B0008B028F3FB1F080918B028032A1F080914F
:1003C0008B02803391F084E010928F021092B10280
:1003D00010928E0208953D9131939F5FC9CF85EEB3
:1003E000E0CF80E0F1CF82E0EFCF83E0EDCF089562
:1003F0000895833081F028F4813099F08230A9F09B
:1004000008958730A9F08830C9F08430B1F4809124
:1004100080008F7D03C0809180008F778093800063
:10042000089584B58F7784BD089584B58F7DFBCF03
:100430008091B0008F778093B00008958091B000D4
:100440008F7DF9CFCF93DF93282F30E0F901E55A64
:10045000FD4F8491F901E853FD4FD491F901EC541B
:10046000FD4FC491CC23A1F081110E94F901EC2F22
:10047000F0E0EE0FFF1FE056FD4FA591B491EC9117
:10048000ED2381E090E009F480E0DF91CF910895C1
:1004900080E090E0FACF1F93CF93DF93282F30E0D6
:1004A000F901E55AFD4F8491F901E853FD4FD491CC
:1004B000F901EC54FD4FC491CC23A9F0162F811102
:1004C0000E94F901EC2FF0E0EE0FFF1FE655FD4F03
:1004D000A591B4918FB7F894EC91111108C0D09503
:1004E000DE23DC938FBFDF91CF911F910895DE2B28
:1004F000F8CF109266021092650210928F0210924D
:10050000B10210928D0281E080938C0210926702FA
:1005100061E082E10E944B0261E083E10E944B02B4
:10052000E9EBF0E080818E7F808380818D7F808306
:1005300088E48093B80085E48093BC0087EF91E065
:10054000909364028093630288EF91E0909362023B
:10055000809361020895CF93DF9390E0FC01E8530C
:10056000FD4F24918C549D4FFC0184918823C9F048
:1005700090E0880F991FFC01EF5AFD4FA591B491AF
:10058000FC01E655FD4FC591D49161110DC09FB797
:10059000F8948C91209582238C938881282328833A
:1005A0009FBFDF91CF910895623051F49FB7F894C7
:1005B0003C91822F809583238C93E8812E2BEFCF63
:1005C0008FB7F894EC912E2B2C938FBFEACF3FB7C7
:1005D000F8948091390290913A02A0913B02B09137
:1005E0003C0226B5A89B05C02F3F19F00196A11D1E
:1005F000B11D3FBFBA2FA92F982F8827BC01CD016D
:10060000620F711D811D911D42E0660F771F881FCB
:10061000991F4A95D1F708958F929F92AF92BF92FA
:10062000CF92DF92EF92FF924B015C010E94E702B2
:100630006B017C010E94E7026C197D098E099F09FC
:10064000683E734081059105A8F321E0821A910864
:10065000A108B10888EEC80E83E0D81EE11CF11C89
:1006600081149104A104B10429F7FF90EF90DF9069
:10067000CF90BF90AF909F908F9008952FB7F89430
:100680006091350270913602809137029091380264
:100690002FBF0895DC01ED91FC910190F081E02DD8
:1006A0000994EF92FF920F931F93CF93DF938C01E6
:1006B0007B01D0E0C0E0F701EC0FFD1F64916623E1
:1006C00061F0D801ED91FC910190F081E02DC8011D
:1006D0000995892B11F02196EECFCE01DF91CF91B4
:1006E0001F910F91FF90EF900895AF92BF92CF921C
:1006F000DF92EF92FF920F931F93CF93DF936C01E2
:100700007B018B01040F151FEB015E01AE18BF08C2
:10071000C017D10759F06991D601ED91FC91019074
:10072000F081E02DC6010995892B79F7C501DF918C
:10073000CF911F910F91FF90EF90DF90CF90BF90DE
:10074000AF900895FC01538D448D252F30E0842F08
:1007500090E0821B930B541710F0CF9608950197E9
:100760000895FC01918D828D981761F0A28DAE0FD6
:10077000BF2FB11D5D968C91928D9F5F9F73928F5D
:1007800090E008958FEF9FEF08950F931F930E94BD
:100790003E036093BA027093BB028093BC029093B5
:1007A000BD0282EB92E00E94B10397FF1DC00E9440
:1007B0003E030091BA021091BB022091BC0230911D
:1007C000BD02601B710B820B930B0091B60210915E
:1007D000B7022091B8023091B90260177107820701
:1007E0009307F8F28FEF9FEF1F910F910895FC018F
:1007F000918D828D981731F0828DE80FF11D858DD6
:1008000090E008958FEF9FEF0895FC01918D228D68
:10081000892F90E0805C9F4F821B91098F739927ED
:10082000089582EB92E00E94050421E0892B09F4EF
:1008300020E0822F089580E090E0892B29F00E942B
:10084000110481110C9400000895FC01A48DA80FDF
:10085000B92FB11DA35ABF4F2C91848D90E0019602
:100860008F739927848FA689B7892C93A089B18922
:100870008C91837080648C93938D848D981306C0C3
:100880000288F389E02D80818F7D80830895EF9227
:10089000FF920F931F93CF93DF93EC0181E0888F3A
:1008A0009B8D8C8D98131AC0E889F989808185FF0A
:1008B00015C09FB7F894EE89FF896083E889F989AC
:1008C00080818370806480839FBF81E090E0DF91AE
:1008D000CF911F910F91FF90EF900895F62E0B8D01
:1008E00010E00F5F1F4F0F731127E02E8C8D8E11BC
:1008F0000CC00FB607FCFACFE889F989808185FF23
:10090000F5CFCE010E942504F1CFEB8DEC0FFD2F2A
:10091000F11DE35AFF4FF0829FB7F8940B8FEA89DD
:10092000FB8980818062CFCFCF93DF93EC01888DEC
:100930008823B9F0AA89BB89E889F9898C9185FD5A
:1009400003C0808186FD0DC00FB607FCF7CF8C91E8
:1009500085FFF2CF808185FFEDCFCE010E94250477
:10096000E9CFDF91CF9108952091150230911602C1
:100970002817390771F49091130280911402981787
:1009800041F0E0911302F0E0ED52FE4F808190E0E3
:1009900008958FEF9FEF08950895EF92FF920F93C0
:1009A0001F93CF93DF93DC015C96ED90FC905D97F5
:1009B000E114F10479F481E090E013969C938E9316
:1009C000129790E080E0DF91CF911F910F91FF90FF
:1009D000EF9008955196ED91FC91529750968C911D
:1009E0005097982F90950FB75E962C915E97122F87
:1009F000127021FD6095F8942081112319F1282BA4
:100A00002083E7012197F1F728E0462F50E030815D
:100A100060FF1AC0382B3083E7012197F1F7BA0144
:100A200075956795215089F7112381F0808189237D
:100A300080830FBF5C968D919C910197F1F781E0C7
:100A400090E0C1CF2923DCCF3923E5CF9081892BDA
:100A5000EFCF20911502309116022817390771F453
:100A6000809114022091130290E0805C9F4F821BC2
:100A7000910960E470E00E94B51D089590E080E067
:100A80000895209115023091160228173907B9F4FC
:100A90009091130280911402981789F0E09113024B
:100AA000F0E0ED52FE4F80812091130230E02F5F85
:100AB0003F4F2F7333272093130290E008958FEF59
:100AC0009FEF0895E091660280916502E81730F487
:100AD000F0E0ED54FE4F808190E008958FEF9FEF9E
:100AE000089590916602809165022FEF3FEF98176D
:100AF00048F4E92FF0E0ED54FE4F208130E09F5F95
:100B000090936602C90108958091650290916602F2
:100B1000891B990B089585ED8093BC008091BC00E2
:100B200084FDFCCF10928D02089520919001260F34
:100B30003327331F21323105ECF420918D02FC0163
:100B400090E080E0243069F082E00895A091900167
:100B50002191AC0140595E4FA40FB52FB11D2C93CC
:100B60000196861798F380919001680F6093900129
:100B700080E0089581E00895CF92DF92EF92FF9296
:100B80000F931F93CF93DF937C01CB018A012091B8
:100B90008E02222389F0EB016B01C40ED51ECC1509
:100BA000DD0569F06991D701ED91FC910190F0812B
:100BB000E02DC7010995F3CF642F0E949505C80168
:100BC000DF91CF911F910F91FF90EF90DF90CF9029
:100BD0000895CF93DF931F92CDB7DEB7698320913D
:100BE0008E022223F9F02091B102203258F021E048
:100BF00030E0FC013383228390E080E00F90DF91AE
:100C0000CF91089580918F02E82FF0E0E057FD4FDB
:100C1000998190838F5F80938F028093B10281E0EE
:100C200090E0ECCF61E0CE0101960E949505F7CFF0
:100C300021E001C0220F6A95EAF7DC011C962C9393
:100C40001C971A965C934E931997ED91FC9104842E
:100C5000F585E02D60E00994DC01ED91FC910684BE
:100C6000F785E02D41E0099581E090E00895DC01F1
:100C7000ED91FC910684F785E02D40E009940F93F7
:100C80001F93CF93DF93CDB7DEB728970FB6F894B5
:100C9000DEBF0FBECDBF009106011091070120916C
:100CA0000801309109010D831E832F83388700913D
:100CB0000A0110910B0120910C0130910D01098363
:100CC0001A832B833C8390916203691710F06FEFB6
:100CD000690F262F30E0409163032C0F3D1FF9016F
:100CE000403199F4943089F46181680F60688BE534
:100CF00093E028960FB6F894DEBF0FBECDBFDF910C
:100D0000CF911F910F910C9437066581EECF61E072
:100D10000E9437068BE39FE10197F1F708950F9347
:100D20001F93CF93DF93EC01423018F08C818860E1
:100D30008C834F836887222329F0413019F48C81FA
:100D400084608C8364E670E080E090E00E940C0395
:100D50006C8164FD57C0E881F9810684F785E02D38
:100D600042E063E0CE0109958BE496E40197F1F748
:100D7000E881F9810684F785E02D42E063E0CE0149
:100D8000099503E512E0C8010197F1F7E881F981BF
:100D90000684F785E02D42E063E0CE010995C801A5
:100DA0000197F1F7E881F9810684F785E02D42E0AB
:100DB00062E0CE010995C8010197F1F76C8160628C
:100DC000CE010E9437068BEE90E00197F1F784E0A8
:100DD0008D836CE0CE010E943706CE010E9487060B
:100DE00082E08E8366E0CE010E943706E881F981B9
:100DF0000484F585E02D6FEFCE01DF91CF911F9137
:100E00000F9109946062CE010E9437068BE496E44C
:100E10000197F1F76C816062CE010E94370603E50D
:100E200012E0C8010197F1F76C816062CE010E9467
:100E30003706C1CF08950895089590E080E00895A1
:100E4000FC0123812223F1F0262F6181609562232A
:100E50006083828191E090938E028093B002109221
:100E60008F021092B1028FE493E00E94E9050E9484
:100E70009A01282F30E081E090E0232B11F090E0E0
:100E800080E0089530E020E0F6CFEF92FF920F93DC
:100E90001F93CF938C01FC0184E0C0E0262F30E04B
:100EA00060FF02C09589C92BB9017595679581507E
:100EB00031968111F3CF413011F4F8014489F801E2
:100EC0006585C62BC42B7801FEE0EF0EF11CF801FE
:100ED00062896C2BC7010E942007F8016289609526
:100EE0006C23C701CF911F910F91FF90EF900C944D
:100EF00020070F931F93CF93DF93062F0F7042307D
:100F000041F440E0602FDF91CF911F910F910C943D
:100F10004507142FEC0170E084E0759567958A957C
:100F2000E1F7CE010E944507412F602FCE01EBCFA4
:100F3000FC0184858823A1F02185328521153105A6
:100F400021F4611107C0158606C021303105D9F79B
:100F50006111F9CF85876585CF010E960C94200726
:100F60000895EF92FF920F931F93CF93DF93EC01BD
:100F7000062FF42EE22E8B85888B0E9479028889B9
:100F800011E010938E028093B00210928F021092A3
:100F9000B1020E949A0181111CC0198B8FE493E069
:100FA0000E9471058E878989882339F01F861C82EB
:100FB00060E0CE010E960E9420072E2D4F2D602F4F
:100FC000CE01DF91CF911F910F91FF90EF900C9484
:100FD0008F06198AE8CF0F931F93CF93DF93C9E44D
:100FE000D2E08C0109541240C8018C0F9D1F0E9451
:100FF000181D899382E0C136D807B1F789E492E0E1
:10100000DF91CF911F910F910895CF93C82F80EF5B
:1010100093E00E94181DC81731F06C2F80EF93E009
:10102000CF910C94201DCF910895AF92BF92DF9283
:10103000EF92FF920F931F93CF93DF935C0109E42C
:1010400012E0D0E0C0E0F801D1908F017501EC0E04
:10105000FD1EC7010E94181DD81621F06D2DC70175
:101060000E94201D2196C831D10569F789E492E0DC
:10107000DF91CF911F910F91FF90EF90DF90BF9084
:10108000AF900895FB0101900020E9F73197AF017F
:10109000461B570BDC01ED91FC910280F381E02DA2
:1010A00009944F925F926F927F92AF92BF92CF92CC
:1010B000DF92EF92FF920F931F93CF93DF93CDB701
:1010C000DEB7A1970FB6F894DEBF0FBECDBF5C01AF
:1010D0006A017B01F7FE42C06DE20E944A038C0167
:1010E00022273327A9012C193D094E095F0919A2AE
:1010F000CE0181967C019AE0492E512C612C712CF5
:10110000CA01B901A30192010E94C91D605DF701E6
:1011100062937F01211531054105510589F790E062
:1011200080E0309721F0BF01C5010E944208800F86
:10113000911FA1960FB6F894DEBF0FBECDBFDF9111
:10114000CF911F910F91FF90EF90DF90CF90BF90C4
:10115000AF907F906F905F904F900895AB01960194
:1011600019A28E010F5D1F4F8AE0C82ED12CE12CF1
:10117000F12CCA01B901A70196010E94C91D605D49
:10118000F80162938F01211531054105510589F759
:1011900090E080E0309769F2BF01C5010E944208EB
:1011A000C8CF0F931F93CF93DF93EC010E94510898
:1011B0008C0168E571E0CE010E944208800F911F0A
:1011C000DF91CF911F910F9108950F931F93CF93AC
:1011D000DF93EC01AB01770F660B770B0E94510890
:1011E0008C0168E571E0CE010E944208800F911FDA
:1011F000DF91CF911F910F9108950F931F93CF937C
:10120000DF93EC010E9451038C0168E571E0CE018F
:101210000E944208800F911FDF91CF911F910F9183
:1012200008956DE972E082EB92E00E94510369E05B
:1012300082EB92E00E944A0368E972E082EB92E05E
:101240000E94510369E082EB92E00E944A0362E946
:1012500072E082EB92E00E94510369E082EB92E03F
:101260000E944A036CE872E082EB92E00E94510314
:1012700069E082EB92E00E944A0366E872E082EB4A
:1012800092E00C94FD086115710511F00C94420870
:1012900090E080E00895CF92DF92EF92FF920F935B
:1012A0001F93CF93DF93EC018BE593E00E948706B9
:1012B00060E080E00E943F06CA30D1052CF460E275
:1012C0008BE593E00E944A03AE01DD0F660B770BBE
:1012D0008BE593E00E94510860E082E00E943F06A7
:1012E00064E872E08BE593E00E94510365E572E0EB
:1012F0008BE593E00E94430960E08EE00E943F0688
:10130000809148028F93809147028F93809146028B
:101310008F93809145028F938BE591E09F938F93FC
:101320008DE392E09F938F930E9413206DE372E010
:101330008BE593E00E94430961E080E00E943F0654
:101340006FE672E08BE593E00E94510363E080E07A
:101350000E943F06C9E4D2E08DB79EB708960FB64B
:10136000F8949EBF0FBE8DBF10E000E08BE5E82E25
:1013700081E0F82E9DE3C92E92E0D92E88819981D3
:101380002A813B8124963F932F939F938F93FF92C3
:10139000EF92DF92CF920E9413206DE372E08BE513
:1013A00093E00E9443098DB79EB708960FB6F89454
:1013B0009EBF0FBE8DBF0230110529F060E28BE5A4
:1013C00093E00E944A030F5F1F4F03301105B1F6EF
:1013D000DF91CF911F910F91FF90EF90DF90CF9011
:1013E0000895CF93DF93AC01990F660B770B82EBD7
:1013F00092E00E94510869E082EB92E00E944A0369
:10140000C9E4D2E01B8E65E572E082EB92E00E94B7
:10141000430969E082EB92E00E944A0348815981C6
:101420006A817B8182EB92E00E94510869E082EB45
:1014300092E00E944A034C815D816E817F8182EB44
:1014400092E00E94510869E082EB92E00E944A0318
:10145000488559856A857B8582EB92E0DF91CF9143
:101460000C94D10860E08EE00E943F068091480213
:101470008F93809147028F93809146028F93809142
:1014800045028F938BE591E09F938F938DE392E0DC
:101490009F938F930E9413208DB79EB708960FB627
:1014A000F8949EBF0FBE8DBF6DE372E08BE593E0B5
:1014B0000C9443090E94320A62E080E00E943F06D9
:1014C0008091320290913302019709F030C18091EE
:1014D000490290914A02A0914B02B0914C02409176
:1014E0001702509118026091190270911A02840F2C
:1014F000951FA61FB71F409145025091460260916B
:10150000470270914802841B950BA60BB70BBF9343
:10151000AF939F938F938BE591E09F938F938DE390
:1015200092E09F938F930E9413206DE372E08BE50E
:1015300093E00E94430960E28BE593E00E944A0336
:101540008DB79EB708960FB6F8949EBF0FBE8DBF9D
:101550008091320290913302029709F0F1C080919C
:101560004D0290914E02A0914F02B09150024091D5
:101570001702509118026091190270911A02840F9B
:10158000951FA61FB71F40911B0250911C0260912E
:101590001D0270911E02840F951FA61FB71F409158
:1015A0004502509146026091470270914802841BA7
:1015B000950BA60BB70BBF93AF939F938F938BE5C0
:1015C00091E09F938F938DE392E09F938F930E947E
:1015D00013206DE372E08BE593E00E94430960E223
:1015E0008BE593E00E944A038DB79EB708960FB62D
:1015F000F8949EBF0FBE8DBF80913202909133024E
:10160000039709F0A6C08091510290915202A091D7
:101610005302B09154024091170250911802609108
:10162000190270911A02840F951FA61FB71F4091CF
:101630001B0250911C0260911D0270911E02840FCA
:10164000951FA61FB71F40911F0250912002609165
:10165000210270912202840F951FA61FB71F40918F
:101660004502509146026091470270914802841BE6
:10167000950BA60BB70BBF93AF939F938F938BE5FF
:1016800091E09F938F938DE392E09F938F930E94BD
:1016900013206DE372E08BE593E00E94430961E063
:1016A00080E00E943F068DB79EB708960FB6F8946B
:1016B0009EBF0FBE8DBF8091320290913302892B65
:1016C00031F46EEF70E08BE593E00E94510380915E
:1016D000320290913302019731F469EE70E08BE5AC
:1016E00093E00E945103809132029091330202975D
:1016F00031F464ED70E08BE593E00E94510380913A
:10170000320290913302039731F46FEB70E08BE576
:1017100093E00E945103809132029091330204972A
:1017200009F56AEA70E08BE593E00C94510380912F
:101730001B0290911C02A0911D02B0911E02E7CEE7
:1017400080911F0290912002A0912102B09122026B
:1017500032CF8091230290912402A0912502B09172
:10176000260289CF08950E94E71FEF92FF920F9300
:101770001F93CF93DF938617970769F1FC012481AC
:101780003581FB014481558124173507E1F4232B72
:1017900011F1FC0100811181FB01C081D181F801AF
:1017A00081918F018823B9F0082E000C990B0E94BB
:1017B000EC1F7C018991082E000C990B0E94EC1FF4
:1017C000E816F90661F380E0DF91CF911F910F9148
:1017D000FF90EF90089581E0F7CF0F931F93CF9381
:1017E000DF93EC0188819981009759F02A813B8130
:1017F0002617370730F081E0DF91CF911F910F91CD
:1018000008958B016F5F7F4F0E942A1F009759F048
:10181000998388831B830A832C813D81232B59F76D
:10182000FC011082E8CF80E0E7CFCF93DF93EC019B
:1018300088819981009711F00E94A11E1982188257
:101840001D821C821B821A82DF91CF910895CF9353
:10185000DF93EC0170E060E00E94ED0B811105C0A8
:10186000CE01DF91CF910C94150C1D821C826AE58C
:1018700071E088819981DF91CF910C94FD1FEF92E7
:10188000FF920F931F93CF93DF93EC017B0119829B
:1018900018821B821A821D821C82FB01019000208B
:1018A000E9F731978F01061B170BB8010E94ED0B6A
:1018B000811109C0CE01DF91CF911F910F91FF904F
:1018C000EF900C94150C1D830C83B70188819981CE
:1018D000DF91CF911F910F91FF90EF900C94FD1F1E
:1018E000EF92FF920F931F93CF93DF9300D0CDB76A
:1018F000DEB78C016AE571E00E943F0C0E94C503CF
:1019000097FD21C08A309105F1F089831A82F80190
:10191000E480F580FFEFEF1AFF0AB701C8010E94CB
:10192000ED0B882359F3F801208131818481958161
:10193000BE016F5F7F4F820F931F0E94FD1FF80152
:10194000F582E482DBCFC8010F900F90DF91CF9139
:101950001F910F91FF90EF900895FC01808191817C
:101960000C94A11EFF920F931F93CF93DF93CDB7DB
:10197000DEB72C970FB6F894DEBF0FBECDBF8C013B
:10198000F801448155816081718182EB92E00E946F
:10199000750363EA70E082EB92E00E94510382EBF0
:1019A00092E00E940504892BD1F3CE0101960E949A
:1019B000700C4D815E8169817A8182EB92E00E9498
:1019C000750368E571E082EB92E00E94420860E6F0
:1019D00071E0CE0107960E943F0CBE01695F7F4F08
:1019E000CE0101960E94B50BF82ECE0107960E94FB
:1019F000AD0CF11019C062E671E0CE0107960E94AD
:101A00003F0CBE01695F7F4FCE0101960E94B50B6E
:101A1000F82ECE0107960E94AD0CF11018C0CE0131
:101A200001960E94AD0CACCF01E010E0CE01019612
:101A30000E94AD0CC8012C960FB6F894DEBF0FBE05
:101A4000CDBFDF91CF911F910F91FF90089510E0CE
:101A500000E0ECCFEF92FF920F931F93CF93DF93B1
:101A6000EC018B01198218821B821A821D821C8252
:101A7000CB010E94621A7C01BC01CE010E94ED0BD9
:101A8000811109C0CE01DF91CF911F910F91FF907D
:101A9000EF900C94150CFD82EC82B801888199813D
:101AA000DF91CF911F910F91FF90EF900C945B1AF3
:101AB0000F931F93CF93DF9300D000D000D0CDB70A
:101AC000DEB78C0182EB92E00E940504892BD1F3F2
:101AD000CE0101960E94700C8D819E81892B31F17F
:101AE00089819A8140E050E0BA01009721F00E947C
:101AF000341AAB01BC01F8014083518362837383C4
:101B000082EB92E00E94D10801E010E0CE01019644
:101B10000E94AD0CC80126960FB6F894DEBF0FBE2A
:101B2000CDBFDF91CF911F910F910895F8014081B2
:101B300051816281738182EB92E00E94D10810E0B2
:101B400000E0E4CF1F920F920FB60F9211242F9353
:101B50003F938F939F93AF93BF9380913502909162
:101B60003602A0913702B09138023091340223E05E
:101B7000230F2D3758F50196A11DB11D2093340276
:101B80008093350290933602A0933702B0933802C7
:101B90008091390290913A02A0913B02B0913C02AF
:101BA0000196A11DB11D8093390290933A02A09332
:101BB0003B02B0933C02BF91AF919F918F913F91B7
:101BC0002F910F900FBE0F901F90189526E8230FAE
:101BD0000296A11DB11DD2CF1F920F920FB60F9288
:101BE00011242F933F934F935F936F937F938F9322
:101BF0009F93AF93BF93EF93FF9382EB92E00E948A
:101C00002504FF91EF91BF91AF919F918F917F91AB
:101C10006F915F914F913F912F910F900FBE0F9059
:101C20001F9018951F920F920FB60F9211242F93A9
:101C30008F939F93EF93FF93E091C202F091C302C1
:101C40008081E091C802F091C90282FD1BC09081A1
:101C50008091CB028F5F8F732091CC02821741F06D
:101C6000E091CB02F0E0EE54FD4F958F8093CB02D4
:101C7000FF91EF919F918F912F910F900FBE0F9039
:101C80001F9018958081F4CF1F920F920FB60F927C
:101C900011242F933F934F935F936F937F938F9371
:101CA0009F93AF93BF93EF93FF93E0911502F09151
:101CB0001602309749F0A685B7858585968D91FFE8
:101CC00014C09C918923A1F4FF91EF91BF91AF9132
:101CD0009F918F917F916F915F914F913F912F9144
:101CE0000F900FBE0F901F9018959C91892361F75C
:101CF000A389B4899C918589809589238C93868951
:101D000097890197F1F7608D718DA685B785558507
:101D100038E020E0CB010197F1F7822F90E0959514
:101D20008795282F4C91452309F02068315091F771
:101D3000868D81FD20958091140290E001968F732D
:101D4000992730911302381799F0A0911402B0E04E
:101D5000AD52BE4F2C9380931402828D938D0197C8
:101D6000F1F7A389B4898C919589892B8C93ACCF99
:101D7000868D8160868FF1CF1F920F920FB60F92E2
:101D800011242F933F934F935F936F937F938F9380
:101D90009F93AF93BF93EF93FF938091B900887F98
:101DA000803609F44AC0F0F5883209F4A7C018F566
:101DB000803109F49BC0B8F4882309F4F9C0883055
:101DC00009F494C0FF91EF91BF91AF919F918F91D2
:101DD0007F916F915F914F913F912F910F900FBE27
:101DE0000F901F901895883109F488C0803251F700
:101DF00080938B0214C0803409F49DC040F480337A
:101E0000B9F38833F9F680938B0285ECB0C0803546
:101E100009F485C0883509F496C0883499F60E9483
:101E20008B05D0CF883909F48CC038F5883729F074
:101E300050F4883611F0803729F683E080938D02C4
:101E40001092B20157C0883809F47BC0803919F06C
:101E5000803809F0B7CF8091B201803208F071C0AC
:101E6000E091B20181E08E0F8093B2018091BB00BE
:101E7000F0E0EE56FE4F80833DC0803B39F0E0F449
:101E8000803A09F479C0883A09F09CCF84E08093C5
:101E90008D021092910110929001E0916302F091F5
:101EA000640209958091900181110FC081E08093B7
:101EB00090011092700109C0803C09F4A6CF883CC3
:101EC00009F4A3CF883B09F07DCFE091910181E037
:101ED0008E0F80939101F0E0E059FE4F8081809356
:101EE000BB00909191018091900129C0809168027E
:101EF0008093BB0085EC8093BC0064CF90918A02F4
:101F000080918902981758F5E0918A0281E08E0F3E
:101F100080938A02F0E0E759FD4F8081E9CFE0919C
:101F20008A0281E08E0F80938A028091BB00F0E0EC
:101F3000E759FD4F808390918A028091890298171A
:101F4000C8F285E8D8CFE0918A0281E08E0F8093B5
:101F50008A028091BB00F0E0E759FD4F80838091B9
:101F60008C0281115CCF81E08093670284EA8093C8
:101F7000BC0010928D0226CF85EC8093BC0010929D
:101F80008D028091B201803230F4E091B201F0E034
:101F9000EE56FE4F10826091B20170E0E091610256
:101FA000F091620282E991E009951092B2010ACFA4
:101FB00010928B0234CF1092B5021092B40288EEC8
:101FC00093E0A0E0B0E08093B6029093B702A093B4
:101FD000B802B093B90222E131E03093B30220930A
:101FE000B20225EC30E03093BF022093BE0224EC15
:101FF00030E03093C1022093C00220EC30E03093F7
:10200000C3022093C20221EC30E03093C50220933A
:10201000C40222EC30E03093C7022093C60226ECC3
:1020200030E03093C9022093C8021092CB02109284
:10203000CC021092CD021092CE0210925203109256
:1020400051038093530390935403A0935503B0938B
:10205000560324E231E03093500320934F03109253
:102060007703109276038093780390937903A0937B
:102070007A03B0937B038AE491E090937503809395
:10208000740310928B0310928A0310928D031092A6
:102090008C0310928F0310928E0310929103109272
:1020A0009003609192036E7F6D7F609392036695BB
:1020B000617081E068278AE00E944B0261E08AE05B
:1020C0000E94AB02E2EDF2E0E491E0938403EEEBD8
:1020D000F2E0E491F0E0EE0FFF1FE655FD4F859131
:1020E0009491909386038093850360E08BE00E9437
:1020F000AB028091920381FD04C061E08BE00E94FD
:102100004B028BE080938003E3EDF2E0E491E093F7
:102110008103EFEBF2E0E491F0E0EE0FFF1FE056F9
:10212000FD4F859194919093830380938203109245
:102130005E0310925D0386E391E090935C038093CD
:102140005B0310926B038FEF80936A031092690315
:1021500010926C0387E280936603109267031092DB
:102160006803109265031092640384E080936D030A
:1021700082E080936E0381E080936F0380E180931F
:10218000700380E28093710380E48093720380E89F
:102190008093730350E040E063E08BE593E00C94A0
:1021A0001806CF93DF93CDB7DEB7C054D1090FB671
:1021B000F894DEBF0FBECDBF789484B5826084BD35
:1021C00084B5816084BD85B5826085BD85B581603B
:1021D00085BD80916E00816080936E0010928100B9
:1021E0008091810082608093810080918100816074
:1021F0008093810080918000816080938000809135
:10220000B10084608093B1008091B00081608093C0
:10221000B00080917A00846080937A0080917A0087
:10222000826080937A0080917A00816080937A0046
:1022300080917A00806880937A001092C100E091CA
:10224000C202F091C30282E08083E091BE02F0916D
:10225000BF021082E091C002F091C1028FEC808336
:102260001092CA02E091C602F091C70286E0808314
:10227000E091C402F091C502808180618083E09189
:10228000C402F091C502808188608083E091C4021D
:10229000F091C502808180688083E091C402F09152
:1022A000C50280818F7D80836EE871E082EB92E0D1
:1022B0000E94FD0863E871E082EB92E00E94FD0855
:1022C00010928F0310928E0310928D0310928C0344
:1022D00010928B0310928A038DE991E09093910301
:1022E0008093900390918003963108F047C02DEBC6
:1022F00030E030938B0320938A032BE931E0309355
:102300008D0320938C032CE231E030938F032093D4
:102310008E032091680084E0983048F031E09E30D0
:1023200008F430E081E001C0880F3A95EAF7822B8B
:10233000809368002DE630E0983050F02BE630E0D6
:102340009E3030F02CE630E0963110F030E020E0A6
:102350003093880320938703292F30E0983008F0CA
:102360000CC181E001C0880F9A95EAF78093890338
:1023700080919003909191030197F1F780918E03E2
:1023800090918F03892B49F1E0911502F09116028B
:1023900023E0E437F20709F1309739F0A389B489D3
:1023A0009C918589809589238C93809192038E7F5F
:1023B00080939203109214021092130284E793E028
:1023C0009093160280931502E0918703F0918803A1
:1023D000808190918903892B808361E086E00E944F
:1023E0004B0261E085E00E944B0261E084E00E94C4
:1023F0004B0261E083E00E944B0261E086E00E94B4
:10240000AB0261E085E00E94AB0261E084E00E94E3
:10241000AB0261E083E00E94AB0262E088E00E94D0
:10242000AB0262E087E00E94AB0262E089E00E94BA
:10243000AB0280EF93E00E94181D8093300281EF81
:1024400093E00E94181D809331026AE771E082EBED
:1024500092E00E945103609130027091310282EB50
:1024600092E00E94E5080E94110910E000E0F12CC2
:10247000E12CC8010E94EB07C7010E94F1093FEF60
:10248000E31AF30A085E1F4F4AE2E416F10489F7E3
:10249000809130029091310228E1AC01249FC0016B
:1024A000259F900D11240E94EB070E94790220E0E5
:1024B00044E064E18BE593E00E94B1078BE593E093
:1024C0000E94870665E671E08BE593E00E94510368
:1024D00068EE73E080E090E00E940C038BE593E0EF
:1024E0000E948706609161036E7F60936103646060
:1024F0008BE593E00E943706809130029091310283
:102500000E944B090E945A0A69E471E082EB92E052
:102510000E94FD0868E371E082EB92E00E94FD08F2
:1025200065E271E082EB92E00E94FD0863E171E0F8
:1025300082EB92E00E94FD086FE571E082EB92E091
:102540000E94FD0841E6242E42E0342E11E084E78B
:1025500093E00E942905892BE9F084E793E00E942B
:102560002905892BB9F084E793E00E944105682F83
:1025700082EB92E00E944704F0CF9E3040F4285056
:10258000310981E001C0880F2A95EAF7EFCE2E507D
:102590003109F7CF82EB92E00E940504892B09F400
:1025A0009FC2A0903202B0903302CE01C7960E9423
:1025B000700CA114B10409F4B5C064E671E0CE0159
:1025C000C1960E943F0CBE016F5C7F4FCE01C79643
:1025D0000E94B50B082FCE01C1960E94AD0C0023BE
:1025E00009F46CC064ED71E082EB92E00E9451034B
:1025F000609132027091330282EB92E00E94E50812
:102600006CEC71E082EB92E00E9451034091450234
:1026100050914602609147027091480282EB92E02D
:102620000E94D10866EC71E082EB92E00E945103B7
:1026300040911702509118026091190270911A028C
:1026400082EB92E00E94D1086FEB71E082EB92E0A6
:102650000E94510340911B0250911C0260911D0287
:1026600070911E0282EB92E00E94D10868EB71E04B
:1026700082EB92E00E94510340911F025091200290
:10268000609121027091220282EB92E00E94D108B7
:1026900061EB71E082EB92E00E94510340912302D2
:1026A00050912402609125027091260282EB92E003
:1026B0000E94D108CE01C7960E94270C8BAD9CAD1D
:1026C000892B09F409C28FA998AD009709F4F4C1C8
:1026D0000E94301A0E947F1D60934502709346024B
:1026E00080934702909348026DE172E082EB92E0A2
:1026F0000E94510340914502509146026091470269
:102700007091480282EB92E00E94D10882EB92E045
:102710000E940504892B09F4D3C182EB92E00E9448
:10272000B103F4CF8BAD9CAD892B09F446CF66E69F
:1027300071E0CE01C1960E943F0CBE016F5C7F4FDD
:10274000CE01C7960E94B50B082FCE01C1960E94FC
:10275000AD0C002341F168E472E082EB92E00E944C
:102760005103609130027091310282EB92E00E943D
:10277000E5080E941109912C812C712C612CC30158
:102780000E94EB07C4010E94F1095FEF851A950AC8
:1027900088E1680E711C9AE28916910481F7CE01D6
:1027A000C7960E94270C68E671E0CE01C1960E9490
:1027B0003F0CBE016F5C7F4FCE01C7960E94B50BE8
:1027C000082FCE01C1960E94AD0C002309F4B5C0BC
:1027D00063E472E082EB92E00E94FD08CE01CD96A8
:1027E0000E94580D8DAD9EAD08E19C01029FC00175
:1027F000039F900D11240E94EB070E9411098DADDB
:102800009EAD0E94F109E9E4F2E0DE0159960190E3
:102810000D920A95E1F76BEA71E082EB92E00E947B
:10282000510382EB92E00E940504892BD1F3CE0183
:10283000C1960E94700C8DA89EA881149104B1F0DD
:102840003BE08316910418F03BE0832E912C69A99C
:102850007AA9A401CE0185960E940420E5E2F0E069
:10286000EC0FFD1FE80DF91D108218AABE016B5D6B
:102870007F4F82EB92E00E94420868E571E082EBB4
:1028800092E00E944208CE01C1960E94AD0C64EA1B
:1028900071E082EB92E00E945103CE0149960E94C2
:1028A000580D6DE971E082EB92E00E945103CE0178
:1028B0004D960E94580D66E971E082EB92E00E940D
:1028C0005103CE0181960E94580D88E1FE01799650
:1028D000DE01119601900D928A95E1F788E1FE01E3
:1028E0003196A9E4B2E001900D928A95E1F70E9439
:1028F00011098DAD9EAD0E94F1096EE372E0CE012B
:10290000C1960E942A0DCE01C1960E94B20C4C01C4
:10291000CE01C1960E94AD0C892859F08DAD9EADB7
:1029200028E1AC01249FC001259F900D11240E9435
:102930001508CE01C7960E94270C6AE671E0CE0109
:10294000C1960E943F0CBE016F5C7F4FCE01C796BF
:102950000E94B50B082FCE01C1960E94AD0C00233A
:1029600069F169E372E082EB92E00E94FD08CE011A
:10297000C1960E94580D89A99AA99093310280931B
:1029800030020E941109809130029091310228E1B9
:10299000AC01249FC001259F900D11240E94EB07DC
:1029A00080913002909131020E94F10980913002B1
:1029B0000E940508CE01C7960E94270C6CE671E0C4
:1029C000CE01C1960E943F0CBE016F5C7F4FCE01CD
:1029D000C7960E94B50B082FCE01C1960E94AD0C80
:1029E000002381F010932F0260E372E082EB92E00B
:1029F0000E94FD0885E492E00E94580DCE01C79622
:102A00000E94270C6EE671E0CE01C1960E943F0C39
:102A1000BE016F5C7F4FCE01C7960E94B50B082F99
:102A2000CE01C1960E94AD0C002309F4C6CD65E22B
:102A300072E0CE01C1960E942A0DCE01C1960E947D
:102A4000B20C4C01CE01C1960E94AD0C892809F44C
:102A5000B4CDE5E5F2E011922E163F06E1F71092B3
:102A6000490210924A0210924B0210924C021092AC
:102A70004D0210924E0210924F021092500210928C
:102A800051021092520210925302109254020E946C
:102A90001109912C812CC4010E941508C5010E94C6
:102AA000F1095FEFA51AB50A88E1880E911C9AE238
:102AB000A916B10481F781CD60E070E0CB010ACEA8
:102AC0008091320290913302009709F42EC40A9744
:102AD00009F42BC40E945A0ACE01C7960E94AD0C7D
:102AE00087E00E942202892B39F089E00E942202AD
:102AF000892B11F010932E028091320290913302B3
:102B00000A9709F002C180912C0290912D0260E099
:102B10008330910534F497E0989F802D112463E071
:102B20008B5F0E943F0660916003862F82608093D6
:102B300060036A608BE593E00E94370610922B02D7
:102B40000E943E038090270290902802A0902902C4
:102B5000B0902A02681979098A099B09653F71407A
:102B60008105910508F4D1C087E00E942202892BDB
:102B700061F580912E02882361F00E943E036093EC
:102B80002702709328028093290290932A021092C0
:102B90002E0280912C0290912D02833091050CF031
:102BA00039C4880F991F880F991FFC01E75BFD4FFF
:102BB00080819181A281B3810196A11DB11D808385
:102BC0009183A283B38310932B0289E00E94220297
:102BD000892BB9F580912E02882361F00E943E0373
:102BE00060932702709328028093290290932A020F
:102BF00010922E0220912C0230912D0223303105AB
:102C000094F4F901EE0FFF1FEE0FFF1FE75BFD4F7E
:102C100080819181A281B3810197A109B10980834B
:102C20009183A283B383F901EA5BFD4F84858F37DB
:102C30000CF08EE7233031050CF07AC384871093B3
:102C40002B0288E00E942202892B29F50E943E0374
:102C500060932702709328028093290290932A029E
:102C600010926002E0912C02F0912D02CF010196AA
:102C700090932D0280932C023297E830F10508F0F2
:102C80005DC3E75BFD4F848580320CF480E28F37B3
:102C90000CF08EE7848780912B028823B1F180911C
:102CA0002C0290912D02833091050CF072C363E0E9
:102CB00097E0989F802D11240E943F06E0912C02FE
:102CC000F0912D02EE0FFF1FEE0FFF1FE75BFD4F90
:102CD00083818F9382818F9381818F9380818F9362
:102CE0008BE591E09F938F934DE352E05F934F9379
:102CF0000E9413206DE372E08BE593E00E9443098C
:102D00000FB6F894DEBF0FBECDBF80913202909116
:102D10003302009709F050C387E00E942202892BFA
:102D2000D9F589E00E942202892BB1F50E943E0369
:102D30008090270290902802A0902902B0902A0249
:102D4000681979098A099B09653F714081059105D8
:102D500018F10E943E03609327027093280280932B
:102D6000290290932A028AE090E0909333028093A4
:102D7000320262E080E00E943F0668E072E08BE58C
:102D800093E00E94510310932B02809132029091A4
:102D90003302009709F010C30E943E03809027027F
:102DA00090902802A0902902B0902A02681979090F
:102DB0008A099B09653F71408105910508F460C04F
:102DC00087E00E942202892B71F50E943E036093E6
:102DD0002702709328028093290290932A028091FF
:102DE00030029091310201968A3291050CF0DCC2DA
:102DF000909331028093300262E180E00E943F06AE
:102E0000809130029091310228E1AC01249FC001F1
:102E1000259F900D11240E94EB0780913002909124
:102E200031020E944B0989E00E942202892B41F560
:102E30000E943E0360932702709328028093290228
:102E400090932A028091300290913102019797FD70
:102E5000B0C2909331028093300280913002909101
:102E6000310228E1AC01249FC001259F900D11245F
:102E70000E94EB0780913002909131020E944B0931
:102E80008091450290914602A0914702B09148027C
:102E90008093170290931802A0931902B0931A021C
:102EA00088E00E942202892B29F080912F0288233A
:102EB00009F489C00E943E03809027029090280266
:102EC000A0902902B0902A02681979098A099B0901
:102ED000653F71408105910508F475C00E943E036D
:102EE00060932702709328028093290290932A020C
:102EF00010922F02809130020E94050880913002CA
:102F00009091310228E1AC01249FC001259F900DD2
:102F100011240E94EB078091490290914A02A091EE
:102F20004B02B0914C0280931B0290931C02A09321
:102F30001D02B0931E0280914D0290914E02A0910D
:102F40004F02B091500280931F0290932002A093F1
:102F50002102B09322028091510290915202A091DD
:102F60005302B09154028093230290932402A093C1
:102F70002502B09326020E9411098091300290919F
:102F800031020E94F10981E090E090933302809336
:102F900032020E943E0362E072E082EB92E00E9405
:102FA00051034091170250911802609119027091DB
:102FB0001A0282EB92E00E94D10880913002909137
:102FC00031020E944B0980913202909133020197A5
:102FD00009F04FC08090170290901802A09019023B
:102FE000B0901A028091450290914602A09147024A
:102FF000B091480288199909AA09BB094091490270
:1030000050914A0260914B0270914C0284179507CF
:10301000A607B70774F182E090E0909333028093A3
:1030200032020E943E038091450290914602A09197
:103030004702B091480288199909AA09BB098093EF
:103040001B0290931C02A0931D02B0931E0266EF18
:1030500071E082EB92E00E94510340911B0250917B
:103060001C0260911D0270911E0282EB92E00E9490
:10307000D1088091320290913302029709F05FC02B
:1030800040901B0250901C0260901D0270901E0226
:103090008090170290901802A0901902B0901A0226
:1030A0008091450290914602A0914702B09148025A
:1030B00084199509A609B70988199909AA09BB09AC
:1030C00040914D0250914E0260914F02709150021A
:1030D00084179507A607B70794F183E090E09093D3
:1030E0003302809332020E943E0380914502909108
:1030F0004602A0914702B091480284199509A60999
:10310000B70988199909AA09BB0980931F029093EE
:103110002002A0932102B09322026FEE71E082EBB5
:1031200092E00E94510340911F0250912002609151
:1031300021027091220282EB92E00E94D1088091DC
:10314000320290913302039709F06FC0C0901F02C2
:10315000D0902002E0902102F090220240901B02C9
:1031600050901C0260901D0270901E028090170209
:1031700090901802A0901902B0901A028091450216
:1031800090914602A0914702B09148028C199D0986
:10319000AE09BF0984199509A609B70988199909C3
:1031A000AA09BB0940915102509152026091530209
:1031B0007091540284179507A607B707B4F184E00D
:1031C00090E090933302809332020E943E038091FC
:1031D000450290914602A0914702B09148028C1995
:1031E0009D09AE09BF0984199509A609B70988196F
:1031F0009909AA09BB098093230290932402A09302
:103200002502B093260267EE71E082EB92E00E9405
:103210005103409123025091240260912502709144
:10322000260282EB92E00E94D108809132029091B6
:1032300033020497D9F5409117025091180260911A
:10324000190270911A028091450290914602A09154
:103250004702B0914802481759076A077B0734F1C3
:1032600010923302109232020E943E0361EE71E02E
:1032700082EB92E00E945103409145025091460238
:10328000609147027091480282EB92E00E94D1085F
:103290006BED71E082EB92E00E94FD0880913002BC
:1032A000909131020E944B090E945A0A8091320289
:1032B00090913302009721F00A9711F00E945A0A68
:1032C000A0903202B090330261E051E0A516B10443
:1032D00009F460E086E00E944B0261E082E0A816FB
:1032E000B10409F460E085E00E944B0261E093E0E4
:1032F000A916B10409F460E084E00E944B0261E089
:1033000024E0A216B10409F460E083E00E944B02BD
:1033100080E090E0892B09F41AC90E9411048823E7
:1033200009F410C90E9400000DC90E94320AD4CBD2
:10333000815080320CF082CC80E280CC0E9709F074
:10334000AACC609160036D7F6093600368608BE539
:1033500093E00E94370610922D0210922C021092D8
:10336000330210923202809130029091310228E1B2
:10337000AC01249FC001259F900D11240E941508C7
:1033800080913002909131020E944B090E945A0AAA
:1033900082CC60E083E00E943F0665E572E08BE549
:1033A00093E00E944309B1CC109231021092300296
:1033B00023CD89E290E04DCD0A9709F45ACE87E0FB
:1033C0000E942202892B09F0FECD89E00E94220290
:1033D000892B09F0F8CD0E943E0360932702709379
:1033E00028028093290290932A02109233021092AD
:1033F00032020E943E036DEF71E082EB92E00E9488
:10340000FD0880913002909131020E944B090E9488
:103410005A0AD9CDFC01EA5BFD4F84858F5F8F3757
:103420000CF08EE78487CFCB8AE491E0909375030C
:1034300080937403809115029091160284579340F3
:1034400071F4E0918703F091880390818091890362
:103450008095892380831092160210921502089598
:10346000662777270C94801A1F93FC0199278827D9
:10347000BC01E89411911032E9F3193010F01E30BC
:10348000C8F31B3251F01D3249F4689406C00E9403
:103490006B1A610F711D811D911D119110531A300E
:1034A000B0F33EF490958095709561957F4F8F4F66
:1034B0009F4F1F910895FB01DC0105900D920020A4
:1034C000E1F70895FC0105900020E9F780959095BB
:1034D0008E0F9F1F0895592F482F372F262F660FC5
:1034E000771F881F991F660F771F881F991F620F0C
:1034F000731F841F951F660F771F881F991F0895DC
:10350000B0E0A0E0E6E8FAE10C943F1D5C017B012D
:103510006115710519F0DB018D939C9385010F5F97
:103520001F4FF501D0818D2F90E00E94D01B6C01C0
:10353000892BB9F5DD32B9F50F5F1F4FD501119613
:10354000DC91C1E05801F1E0AF1AB10843E050E06E
:1035500060E770E0C5010E94D91B892B69F56801FD
:1035600082E0C80ED11C45E050E06BE670E0C60179
:103570000E94D91B892B21F4680197E0C90ED11C48
:10358000E114F10419F0D701CD92DC9260E070E013
:1035900080E89FEFC111FFC060E070E080E89FE726
:1035A000FAC05801BBCFDB3229F485010E5F1F4FF3
:1035B000F501D181C0E0C6CF43E050E068E670E09D
:1035C000C5010E94D91B892BE9F0F80110E000E049
:1035D00020E030E0A9015F01B0ED8B2E8D0E89E077
:1035E0008815C8F19C2E689491F88C2F8870C2FFC2
:1035F00016C0811102C00F5F1F4F3196D501DC91BB
:10360000C92DE9CFE114F10429F00E5F1F4FF70136
:103610001183008360E070E080EC9FE7BCC08823EA
:1036200011F001501109A5E0B0E00E942E1D9B0190
:10363000AC01220F331F441F551F280D311D411DA2
:10364000511D283999E93907490799E15907A8F225
:10365000C6609C2ED2CFAEEF8A1206C0C3FD3CC01E
:103660009C2E689493F8C9CFDF7DD534A9F580816D
:103670008D3239F4C061DF011296818162E070E021
:1036800006C0DF018B32C1F3119661E070E0805318
:103690005D01A61AB70A8A30F8F4E0E8CE16ECE02D
:1036A000DE065CF4B601660F771F660F771FC60E45
:1036B000D71ECC0CDD1CC80ED11C5D01FFEFAF1A6C
:1036C000BF0A8C9180538A30A8F1C4FF03C0D19403
:1036D000C194D1080C0D1D1DC1FF09C0E114F104F6
:1036E00031F081E0A81AB108D701AD92BC92CA01AD
:1036F000B9010E94F61BC370C33009F490584B0106
:103700005C0120E030E0A9010E94F11B882309F44C
:1037100040C0CFE9D0E017FF05C011950195110910
:10372000C7E8D0E06E01B8E1CB1AD10880E2E82EFC
:10373000F12C0FC0D501B1CFFE01259135914591F6
:1037400054910E191F09C501B4010E94571C4B0169
:103750005C01D501C4010E151F0574F72497F5947B
:10376000E794CC16DD06A9F78A2F880F8B2F881FC8
:103770008F3F49F020E030E0A901C501B4010E946B
:10378000F11B811106C082E290E090939403809334
:103790009303C501B401CDB7DEB7ECE00C945B1D1B
:1037A00091110C94C41C803219F089508550C8F7CF
:1037B0000895FB01DC014150504088F08D91813427
:1037C0001CF08B350CF4805E659161341CF06B3518
:1037D0000CF4605E861B611171F3990B0895881BD0
:1037E000FCCF0E94331C08F481E00895E89409C0DE
:1037F00097FB3EF490958095709561957F4F8F4F24
:103800009F4F9923A9F0F92F96E9BB279395F69539
:10381000879577956795B795F111F8CFFAF4BB0FB7
:1038200011F460FF1BC06F5F7F4F8F4F9F4F16C01B
:10383000882311F096E911C0772321F09EE8872FA5
:10384000762F05C0662371F096E8862F70E060E061
:103850002AF09A95660F771F881FDAF7880F9695DA
:10386000879597F90895990F0008550FAA0BE0E87E
:10387000FEEF16161706E807F907C0F01216130632
:10388000E407F50798F0621B730B840B950B39F472
:103890000A2661F0232B242B252B21F408950A26D8
:1038A00009F4A140A6958FEF811D811D08950E9406
:1038B0006A1C0C94DE1C0E94D01C38F00E94D71C9D
:1038C00020F0952311F00C94C71C0C94CD1C1124EE
:1038D0000C94121D0E94EF1C70F3959FC1F3950F7D
:1038E00050E0551F629FF001729FBB27F00DB11D84
:1038F000639FAA27F00DB11DAA1F649F6627B00D14
:10390000A11D661F829F2227B00DA11D621F739FFC
:10391000B00DA11D621F839FA00D611D221F749F0A
:103920003327A00D611D231F849F600D211D822F51
:10393000762F6A2F11249F5750409AF0F1F0882378
:103940004AF0EE0FFF1FBB1F661F771F881F9150A5
:103950005040A9F79E3F510580F00C94C71C0C9471
:10396000121D5F3FE4F3983ED4F3869577956795F3
:10397000B795F795E7959F5FC1F7FE2B880F911DCF
:103980009695879597F9089599278827089597F927
:103990009F6780E870E060E008959FEF80EC0895F5
:1039A00000240A941616170618060906089500241E
:1039B0000A9412161306140605060895092E039498
:1039C000000C11F4882352F0BB0F40F4BF2B11F40C
:1039D00060FF04C06F5F7F4F8F4F9F4F089557FD6B
:1039E0009058440F551F59F05F3F71F04795880F6D
:1039F00097FB991F61F09F3F79F087950895121604
:103A000013061406551FF2CF4695F1DF08C01616AF
:103A100017061806991FF1CF869571056105089460
:103A20000895E894BB2766277727CB0197F9089577
:103A3000F999FECF92BD81BDF89A992780B5089576
:103A4000262FF999FECF1FBA92BD81BD20BD0FB6BA
:103A5000F894FA9AF99A0FBE019608950E94701D83
:103A6000A59F900DB49F900DA49F800D911D1124D2
:103A700008952F923F924F925F926F927F928F9212
:103A80009F92AF92BF92CF92DF92EF92FF920F93ED
:103A90001F93CF93DF93CDB7DEB7CA1BDB0B0FB6F7
:103AA000F894DEBF0FBECDBF09942A8839884888B4
:103AB0005F846E847D848C849B84AA84B984C8844A
:103AC000DF80EE80FD800C811B81AA81B981CE0F41
:103AD000D11D0FB6F894DEBF0FBECDBFED01089526
:103AE000A29FB001B39FC001A39F700D811D11243F
:103AF000911DB29F700D811D1124911D08950E948A
:103B0000861D6894B1110C94121D08950E94F71C33
:103B100088F09F5798F0B92F9927B751B0F0E1F08E
:103B2000660F771F881F991F1AF0BA95C9F714C03E
:103B3000B13091F00E94111DB1E008950C94111D57
:103B4000672F782F8827B85F39F0B93FCCF3869577
:103B500077956795B395D9F73EF4909580957095D4
:103B600061957F4F8F4F9F4F089597FB072E16F457
:103B7000009407D077FD09D00E94EB1D07FC05D00B
:103B80003EF4909581959F4F0895709561957F4F74
:103B90000895A1E21A2EAA1BBB1BFD010DC0AA1F8E
:103BA000BB1FEE1FFF1FA217B307E407F50720F0A6
:103BB000A21BB30BE40BF50B661F771F881F991F21
:103BC0001A9469F760957095809590959B01AC016A
:103BD000BD01CF010895AA1BBB1B51E107C0AA1F5D
:103BE000BB1FA617B70710F0A61BB70B881F991F9E
:103BF0005A95A9F780959095BC01CD010895EE0FD7
:103C0000FF1F0590F491E02D09940F931F93CF931C
:103C1000DF938230910510F482E090E0E091970309
:103C2000F091980330E020E0B0E0A0E0309799F404
:103C30002115310509F44AC0281B390B2430310500
:103C4000D8F58A819B816115710589F1FB01938308
:103C50008283FE0111C04081518102811381481786
:103C60005907E0F04817590799F4109761F0129638
:103C70000C93129713961C933296CF01DF91CF913C
:103C80001F910F9108950093970310939803F4CF19
:103C90002115310551F04217530738F0A901DB0116
:103CA0009A01BD01DF01F801C1CFEF01F9CF909377
:103CB000980380939703CDCFFE01E20FF31F81930A
:103CC00091932250310939832883D7CF20919503CE
:103CD00030919603232B41F420910201309103018E
:103CE00030939603209395032091000130910101B8
:103CF0002115310541F42DB73EB740910401509193
:103D00000501241B350BE0919503F0919603E21712
:103D1000F307A0F42E1B3F0B2817390778F0AC01EE
:103D20004E5F5F4F2417350748F04E0F5F1F5093CB
:103D3000960340939503819391939FCFF0E0E0E049
:103D40009CCFCF93DF930097E9F0FC013297138269
:103D50001282A0919703B0919803ED0130E020E02A
:103D60001097A1F420813181820F931F2091950338
:103D7000309196032817390709F061C0F093960334
:103D8000E0939503DF91CF910895EA01CE17DF0705
:103D9000E8F54A815B819E0141155105B1F7E901C2
:103DA000FB83EA8349915991C40FD51FEC17FD0796
:103DB00061F4808191810296840F951FE9019983B6
:103DC0008883828193819B838A83F0E0E0E012966E
:103DD0008D919C9113970097B9F52D913C91119776
:103DE000CD010296820F931F209195033091960387
:103DF0002817390739F6309751F510929803109229
:103E00009703B0939603A0939503BCCFD383C2834B
:103E100040815181840F951FC817D90761F44E5F07
:103E20005F4F88819981480F591F518340838A8150
:103E30009B81938382832115310509F0B0CFF093E4
:103E40009803E09397039ECFFD01DC01C0CF13825E
:103E50001282D7CFB0E0A0E0E0E3FFE10C943B1D7D
:103E60008C01009751F4CB010E94051E8C01C80102
:103E7000CDB7DEB7E0E10C94571DFC01E60FF71F4C
:103E80009C0122503109E217F30708F49DC0D901C3
:103E9000CD91DC911197C617D70798F0C530D105A1
:103EA00030F3CE0104978617970708F3C61BD70B8C
:103EB0002297C193D1936D937C93CF010E94A11E51
:103EC000D6CF5B01AC1ABD0A4C018C0E9D1EA09191
:103ED0009703B0919803512C412CF12CE12C1097B1
:103EE00031F580919503909196038815990509F015
:103EF0005CC04616570608F058C0809100019091AA
:103F00000101009741F48DB79EB740910401509193
:103F10000501841B950BE817F90708F055C0F093CD
:103F20009603E0939503F90171836083A0CF8D918F
:103F30009C91119712966C90129713967C90139700
:103F4000A815B90559F56C0142E0C40ED11CCA147C
:103F5000DB0420F1AC014A195B09DA0112961597CE
:103F600080F06282738251834083D9016D937C9388
:103F7000E114F10471F0D7011396FC93EE931297BC
:103F800076CF22968C0F9D1FF90191838083F301D8
:103F9000EFCFF0939803E093970369CF4816590643
:103FA00008F42C017D01D3019ACFCB010E94051E9C
:103FB0007C01009749F0AE01B8010E94F41FC801CE
:103FC0000E94A11E870153CF10E000E050CF81E096
:103FD00090E0F8940C94B4229111089581548A5180
:103FE00008F4805E855A0895FB01DC0102C001904F
:103FF0000D9241505040D8F70895FB01DC0101902B
:104000000D920020E1F70895FB01DC014150504082
:1040100048F001900D920020C9F701C01D92415057
:104020005040E0F70895AEE0B0E0E9E1F0E20C9432
:10403000471D0D891E8986E08C831A8309838FEFC3
:104040009FE79E838D83AE01475E5F4F6F89788DBA
:10405000CE0101960E9436202F813885020F131F52
:10406000F80110822E96E4E00C94631DABE0B0E002
:10407000ECE3F0E20C94391D7C013B018A01FC0168
:1040800017821682838181FFC8C1CE0101965C012F
:10409000F7019381F30193FD859193FF81913F0196
:1040A000882309F453C1853239F493FD859193FF38
:1040B00081913F01853229F4B70190E00E942622C8
:1040C000E7CF912C212C312CFFE1F31538F08B3206
:1040D00011F190F4803209F1833229F137FC3CC0B0
:1040E00020ED280F2A3050F536FE20C08AE0989E39
:1040F000200D1124922E06C08D3291F0803371F77D
:10410000689430F8F30193FD859193FF81913F010D
:104110008111DACF21C0689431F8689432F8F2CF77
:10412000689433F8EFCF689434F8ECCFEAE02E9E31
:10413000200D1124222E689435F8E4CF8E3229F414
:1041400036FC04C1689436F8DDCF8C3619F46894D7
:1041500037F8D8CF8836B1F2982F9F7D9554933099
:10416000E0F08336A1F18337C1F1833509F063C0F4
:104170002801F2E04F0E511CF801C080D180692D5A
:1041800070E036FC02C06FEF7FEFC6010E94102284
:104190004C01689437F882010AC00C5F1F4FFFE39F
:1041A000F98388248394912C6501E89437F833FED1
:1041B0002DC0522C8114910471F5552009F468CF5B
:1041C000B70180E290E00E9426225A94F6CFF801CF
:1041D000808189830E5F1F4FE4CF2801F2E04F0EEC
:1041E000511CF801C080D180692D70E036FC02C0FE
:1041F0006FEF7FEFC6010E941B224C018201D5CFD9
:10420000B70180E290E00E9426222A942814190423
:1042100009F0B0F7CECFF60137FC859137FE8191DA
:104220006F01B70190E00E94262251105A94F1E0EC
:104230008F1A9108BFCF843619F0893609F077C0FC
:10424000F80137FE6BC060817181828193810C5FC0
:104250001F4FF32DFF763F2E97FF09C09095809555
:10426000709561957F4F8F4F9F4F689437F82AE084
:1042700030E0A5010E945622C82ECA188C2C432C6F
:1042800036FE0CC0E89440F8C91440F434FE05C072
:1042900032FC03C0F32DFE7E4F2E892C44FE95C0C8
:1042A000FE01EC0DF11D8081803309F087C0242DC3
:1042B000297E422E842D8870582E43FC95C040FEE6
:1042C0008FC09C2C821418F42C0C922C981844FE4D
:1042D00091C0B70180E390E00E94262242FE09C00F
:1042E00088E790E041FE02C088E590E0B7010E94B7
:1042F0002622C91408F48AC0CA94D12C9FEFC91A87
:10430000D90ACA0CDB1CF60182916F01B70190E05B
:104310000E942622AC14BD04B1F74FCF6081718199
:10432000072E000C880B990B0E5F1F4F92CFD32CDA
:10433000E894D4F82AE030E0853739F1232D297F3D
:10434000D22E8F3601F148F48835A9F0F701868125
:1043500097812B96E2E10C94551D803749F0883700
:10436000A9F7D4FE02C06894D2F820E130E00DC075
:104370006894D4F8F6CF34FE03C0822F8660D82E1E
:1043800020E132E002C028E030E0F801D7FE0FC0A3
:1043900060817181828193810C5F1F4FA5010E9412
:1043A0005622C82ECA183D2CE89437F867CF608192
:1043B000718190E080E00E5F1F4FF0CF42FC02C0A1
:1043C000839478CF8394839475CF842D867809F471
:1043D00071CFF6CFB70180E290E00E94262283944D
:1043E0008214C0F3512C73CF522C5818821408F445
:1043F0006ECFF8CF842D867809F47BCF8BE241FE17
:1044000080E247FC8DE2B70190E071CFB70180E315
:1044100090E00E9426229A946CCF8FEF9FEF99CF65
:10442000FC010590615070400110D8F7809590957F
:104430008E0F9F1F0895FC01615070400190011084
:10444000D8F7809590958E0F9F1F08950F931F9317
:10445000CF93DF93182F092FEB018B8181FD09C0CA
:104460001FEF0FEF812F902FDF91CF911F910F91B1
:10447000089582FF14C02E813F818C819D81281771
:1044800039073CF4E881F981CF010196998388834B
:1044900010838E819F8101969F838E83E3CFE88571
:1044A000F985812F0995892BA1F3DACFFA01AA2783
:1044B000283051F1203181F1E8946F936E7F6E5F67
:1044C0007F4F8F4F9F4FAF4FB1E03ED0B4E03CD015
:1044D000670F781F891F9A1FA11D680F791F8A1FF8
:1044E000911DA11D6A0F711D811D911DA11D20D05F
:1044F00009F468943F912AE0269F11243019305D19
:104500003193DEF6CF010895462F4770405D419309
:10451000B3E00FD0C9F7F6CF462F4F70405D4A3356
:1045200018F0495D31FD4052419302D0A9F7EACF1E
:10453000B4E0A6959795879577956795BA95C9F74D
:1045400000976105710508959B01AC010A2E069440
:104550005795479537952795BA95C9F7620F731FF9
:10456000841F951FA01D089511E0CFE6D1E004C07F
:10457000FE010E94FF1D2196C037D107C9F7F894AC
:02458000FFCF6B
:1045820000009903800000401454004010500000C5
:10459200000047047503A20394040504B103F70362
:1045A20000000000E905BC051D07CC048405710567
:1045B2006205000000002C0675031D071C07B107E9
:1045C20018069807790700000000CD0475031D073F
:1045D200CC0429054105B4040D0A0025366C64009B
:1045E20059004E003F004400450050005300520065
:00000001FF
